{
  "contractName": "TestAXP",
  "abi": [
    {
      "constant": true,
      "inputs": [],
      "name": "name",
      "outputs": [
        {
          "name": "",
          "type": "string"
        }
      ],
      "payable": false,
      "stateMutability": "view",
      "type": "function"
    },
    {
      "constant": true,
      "inputs": [],
      "name": "decimals",
      "outputs": [
        {
          "name": "",
          "type": "uint8"
        }
      ],
      "payable": false,
      "stateMutability": "view",
      "type": "function"
    },
    {
      "constant": true,
      "inputs": [],
      "name": "owner",
      "outputs": [
        {
          "name": "",
          "type": "address"
        }
      ],
      "payable": false,
      "stateMutability": "view",
      "type": "function"
    },
    {
      "constant": true,
      "inputs": [],
      "name": "symbol",
      "outputs": [
        {
          "name": "",
          "type": "string"
        }
      ],
      "payable": false,
      "stateMutability": "view",
      "type": "function"
    },
    {
      "inputs": [],
      "payable": false,
      "stateMutability": "nonpayable",
      "type": "constructor"
    },
    {
      "anonymous": false,
      "inputs": [
        {
          "indexed": true,
          "name": "_from",
          "type": "address"
        },
        {
          "indexed": true,
          "name": "_to",
          "type": "address"
        },
        {
          "indexed": false,
          "name": "_value",
          "type": "uint256"
        }
      ],
      "name": "Transfer",
      "type": "event"
    },
    {
      "anonymous": false,
      "inputs": [
        {
          "indexed": true,
          "name": "_owner",
          "type": "address"
        },
        {
          "indexed": true,
          "name": "_spender",
          "type": "address"
        },
        {
          "indexed": false,
          "name": "_value",
          "type": "uint256"
        }
      ],
      "name": "Approval",
      "type": "event"
    },
    {
      "constant": true,
      "inputs": [],
      "name": "totalSupply",
      "outputs": [
        {
          "name": "totalSupply",
          "type": "uint256"
        }
      ],
      "payable": false,
      "stateMutability": "view",
      "type": "function"
    },
    {
      "constant": true,
      "inputs": [
        {
          "name": "_owner",
          "type": "address"
        }
      ],
      "name": "balanceOf",
      "outputs": [
        {
          "name": "balance",
          "type": "uint256"
        }
      ],
      "payable": false,
      "stateMutability": "view",
      "type": "function"
    },
    {
      "constant": false,
      "inputs": [
        {
          "name": "_to",
          "type": "address"
        },
        {
          "name": "_amount",
          "type": "uint256"
        }
      ],
      "name": "transfer",
      "outputs": [
        {
          "name": "success",
          "type": "bool"
        }
      ],
      "payable": false,
      "stateMutability": "nonpayable",
      "type": "function"
    },
    {
      "constant": false,
      "inputs": [
        {
          "name": "_from",
          "type": "address"
        },
        {
          "name": "_to",
          "type": "address"
        },
        {
          "name": "_amount",
          "type": "uint256"
        }
      ],
      "name": "transferFrom",
      "outputs": [
        {
          "name": "success",
          "type": "bool"
        }
      ],
      "payable": false,
      "stateMutability": "nonpayable",
      "type": "function"
    },
    {
      "constant": false,
      "inputs": [
        {
          "name": "_spender",
          "type": "address"
        },
        {
          "name": "_amount",
          "type": "uint256"
        }
      ],
      "name": "approve",
      "outputs": [
        {
          "name": "success",
          "type": "bool"
        }
      ],
      "payable": false,
      "stateMutability": "nonpayable",
      "type": "function"
    },
    {
      "constant": true,
      "inputs": [
        {
          "name": "_owner",
          "type": "address"
        },
        {
          "name": "_spender",
          "type": "address"
        }
      ],
      "name": "allowance",
      "outputs": [
        {
          "name": "remaining",
          "type": "uint256"
        }
      ],
      "payable": false,
      "stateMutability": "view",
      "type": "function"
    }
  ],
  "bytecode": "0x608060405263b2d05e0060005534801561001857600080fd5b5033600160006101000a81548173ffffffffffffffffffffffffffffffffffffffff021916908373ffffffffffffffffffffffffffffffffffffffff16021790555060005460026000600160009054906101000a900473ffffffffffffffffffffffffffffffffffffffff1673ffffffffffffffffffffffffffffffffffffffff1673ffffffffffffffffffffffffffffffffffffffff16815260200190815260200160002081905550610c28806100d16000396000f3006080604052600436106100a4576000357c0100000000000000000000000000000000000000000000000000000000900463ffffffff16806306fdde03146100a9578063095ea7b31461013957806318160ddd1461019e57806323b872dd146101c9578063313ce5671461024e57806370a082311461027f5780638da5cb5b146102d657806395d89b411461032d578063a9059cbb146103bd578063dd62ed3e14610422575b600080fd5b3480156100b557600080fd5b506100be610499565b6040518080602001828103825283818151815260200191508051906020019080838360005b838110156100fe5780820151818401526020810190506100e3565b50505050905090810190601f16801561012b5780820380516001836020036101000a031916815260200191505b509250505060405180910390f35b34801561014557600080fd5b50610184600480360381019080803573ffffffffffffffffffffffffffffffffffffffff169060200190929190803590602001909291905050506104d2565b604051808215151515815260200191505060405180910390f35b3480156101aa57600080fd5b506101b36105c4565b6040518082815260200191505060405180910390f35b3480156101d557600080fd5b50610234600480360381019080803573ffffffffffffffffffffffffffffffffffffffff169060200190929190803573ffffffffffffffffffffffffffffffffffffffff169060200190929190803590602001909291905050506105cd565b604051808215151515815260200191505060405180910390f35b34801561025a57600080fd5b506102636108d4565b604051808260ff1660ff16815260200191505060405180910390f35b34801561028b57600080fd5b506102c0600480360381019080803573ffffffffffffffffffffffffffffffffffffffff1690602001909291905050506108d9565b6040518082815260200191505060405180910390f35b3480156102e257600080fd5b506102eb610922565b604051808273ffffffffffffffffffffffffffffffffffffffff1673ffffffffffffffffffffffffffffffffffffffff16815260200191505060405180910390f35b34801561033957600080fd5b50610342610948565b6040518080602001828103825283818151815260200191508051906020019080838360005b83811015610382578082015181840152602081019050610367565b50505050905090810190601f1680156103af5780820380516001836020036101000a031916815260200191505b509250505060405180910390f35b3480156103c957600080fd5b50610408600480360381019080803573ffffffffffffffffffffffffffffffffffffffff16906020019092919080359060200190929190505050610981565b604051808215151515815260200191505060405180910390f35b34801561042e57600080fd5b50610483600480360381019080803573ffffffffffffffffffffffffffffffffffffffff169060200190929190803573ffffffffffffffffffffffffffffffffffffffff169060200190929190505050610b75565b6040518082815260200191505060405180910390f35b6040805190810160405280600781526020017f546573744158500000000000000000000000000000000000000000000000000081525081565b600081600360003373ffffffffffffffffffffffffffffffffffffffff1673ffffffffffffffffffffffffffffffffffffffff16815260200190815260200160002060008573ffffffffffffffffffffffffffffffffffffffff1673ffffffffffffffffffffffffffffffffffffffff168152602001908152602001600020819055508273ffffffffffffffffffffffffffffffffffffffff163373ffffffffffffffffffffffffffffffffffffffff167f8c5be1e5ebec7d5bd14f71427d1e84f3dd0314c0f7b2291e5b200ac8c7c3b925846040518082815260200191505060405180910390a36001905092915050565b60008054905090565b600081600260008673ffffffffffffffffffffffffffffffffffffffff1673ffffffffffffffffffffffffffffffffffffffff168152602001908152602001600020541015801561069a575081600360008673ffffffffffffffffffffffffffffffffffffffff1673ffffffffffffffffffffffffffffffffffffffff16815260200190815260200160002060003373ffffffffffffffffffffffffffffffffffffffff1673ffffffffffffffffffffffffffffffffffffffff1681526020019081526020016000205410155b80156106a65750600082115b80156107315750600260008473ffffffffffffffffffffffffffffffffffffffff1673ffffffffffffffffffffffffffffffffffffffff1681526020019081526020016000205482600260008673ffffffffffffffffffffffffffffffffffffffff1673ffffffffffffffffffffffffffffffffffffffff1681526020019081526020016000205401115b156108c85781600260008673ffffffffffffffffffffffffffffffffffffffff1673ffffffffffffffffffffffffffffffffffffffff1681526020019081526020016000206000828254039250508190555081600360008673ffffffffffffffffffffffffffffffffffffffff1673ffffffffffffffffffffffffffffffffffffffff16815260200190815260200160002060003373ffffffffffffffffffffffffffffffffffffffff1673ffffffffffffffffffffffffffffffffffffffff1681526020019081526020016000206000828254039250508190555081600260008573ffffffffffffffffffffffffffffffffffffffff1673ffffffffffffffffffffffffffffffffffffffff168152602001908152602001600020600082825401925050819055508273ffffffffffffffffffffffffffffffffffffffff168473ffffffffffffffffffffffffffffffffffffffff167fddf252ad1be2c89b69c2b068fc378daa952ba7f163c4a11628f55a4df523b3ef846040518082815260200191505060405180910390a3600190506108cd565b600090505b9392505050565b600381565b6000600260008373ffffffffffffffffffffffffffffffffffffffff1673ffffffffffffffffffffffffffffffffffffffff168152602001908152602001600020549050919050565b600160009054906101000a900473ffffffffffffffffffffffffffffffffffffffff1681565b6040805190810160405280600381526020017f4e4146000000000000000000000000000000000000000000000000000000000081525081565b600081600260003373ffffffffffffffffffffffffffffffffffffffff1673ffffffffffffffffffffffffffffffffffffffff16815260200190815260200160002054101580156109d25750600082115b8015610a5d5750600260008473ffffffffffffffffffffffffffffffffffffffff1673ffffffffffffffffffffffffffffffffffffffff1681526020019081526020016000205482600260008673ffffffffffffffffffffffffffffffffffffffff1673ffffffffffffffffffffffffffffffffffffffff1681526020019081526020016000205401115b15610b6a5781600260003373ffffffffffffffffffffffffffffffffffffffff1673ffffffffffffffffffffffffffffffffffffffff1681526020019081526020016000206000828254039250508190555081600260008573ffffffffffffffffffffffffffffffffffffffff1673ffffffffffffffffffffffffffffffffffffffff168152602001908152602001600020600082825401925050819055508273ffffffffffffffffffffffffffffffffffffffff163373ffffffffffffffffffffffffffffffffffffffff167fddf252ad1be2c89b69c2b068fc378daa952ba7f163c4a11628f55a4df523b3ef846040518082815260200191505060405180910390a360019050610b6f565b600090505b92915050565b6000600360008473ffffffffffffffffffffffffffffffffffffffff1673ffffffffffffffffffffffffffffffffffffffff16815260200190815260200160002060008373ffffffffffffffffffffffffffffffffffffffff1673ffffffffffffffffffffffffffffffffffffffff168152602001908152602001600020549050929150505600a165627a7a72305820ae78ea2dbaabc9b618e8703ba10bc82eda623c496d74924783afcae9738c3ca10029",
  "source": "pragma solidity ^0.4.19;\r\n\r\n contract ERC20Interface {\r\n     // Get the total token supply\r\n     function totalSupply() constant returns (uint256 totalSupply);\r\n\r\n     // Get the account balance of another account with address _owner\r\n     function balanceOf(address _owner) constant returns (uint256 balance);\r\n\r\n     // Send _value amount of tokens to address _to\r\n     function transfer(address _to, uint256 _value) returns (bool success);\r\n\r\n     // Send _value amount of tokens from address _from to address _to\r\n     function transferFrom(address _from, address _to, uint256 _value) returns (bool success);\r\n\r\n     // Allow _spender to withdraw from your account, multiple times, up to the _value amount.\r\n     // If this function is called again it overwrites the current allowance with _value.\r\n     // this function is required for some DEX functionality\r\n     function approve(address _spender, uint256 _value) returns (bool success);\r\n\r\n     // Returns the amount which _spender is still allowed to withdraw from _owner\r\n     function allowance(address _owner, address _spender) constant returns (uint256 remaining);\r\n\r\n     // Triggered when tokens are transferred.\r\n     event Transfer(address indexed _from, address indexed _to, uint256 _value);\r\n\r\n     // Triggered whenever approve(address _spender, uint256 _value) is called.\r\n     event Approval(address indexed _owner, address indexed _spender, uint256 _value);\r\n }\r\n\r\n contract TestAXP is ERC20Interface {\r\n     string public constant symbol = \"NAF\";\r\n     string public constant name = \"TestAXP\";\r\n     uint8 public constant decimals = 3;\r\n     uint256 _totalSupply = 3000000000;\r\n\r\n     // Owner of this contract\r\n     address public owner;\r\n\r\n     // Balances for each account\r\n     mapping(address => uint256) balances;\r\n\r\n     // Owner of account approves the transfer of an amount to another account\r\n     mapping(address => mapping (address => uint256)) allowed;\r\n\r\n     // Functions with this modifier can only be executed by the owner\r\n     modifier onlyOwner() {\r\n         require(msg.sender != owner); {\r\n\r\n          }\r\n          _;\r\n      }\r\n\r\n      // Constructor\r\n      function TestAXP() {\r\n          owner = msg.sender;\r\n          balances[owner] = _totalSupply;\r\n      }\r\n\r\n      function totalSupply() constant returns (uint256 totalSupply) {\r\n         totalSupply = _totalSupply;\r\n      }\r\n\r\n      // What is the balance of a particular account?\r\n      function balanceOf(address _owner) constant returns (uint256 balance) {\r\n         return balances[_owner];\r\n      }\r\n\r\n      // Transfer the balance from owner's account to another account\r\n      function transfer(address _to, uint256 _amount) returns (bool success) {\r\n         if (balances[msg.sender] >= _amount\r\n              && _amount > 0\r\n              && balances[_to] + _amount > balances[_to]) {\r\n              balances[msg.sender] -= _amount;\r\n              balances[_to] += _amount;\r\n              Transfer(msg.sender, _to, _amount);\r\n              return true;\r\n          } else {\r\n              return false;\r\n         }\r\n      }\r\n\r\n      // Send _value amount of tokens from address _from to address _to\r\n      // The transferFrom method is used for a withdraw workflow, allowing contracts to send\r\n      // tokens on your behalf, for example to \"deposit\" to a contract address and/or to charge\r\n      // fees in sub-currencies; the command should fail unless the _from account has\r\n      // deliberately authorized the sender of the message via some mechanism; we propose\r\n      // these standardized APIs for approval:\r\n      function transferFrom(\r\n          address _from,\r\n          address _to,\r\n         uint256 _amount\r\n    ) returns (bool success) {\r\n       if (balances[_from] >= _amount\r\n            && allowed[_from][msg.sender] >= _amount\r\n           && _amount > 0\r\n            && balances[_to] + _amount > balances[_to]) {\r\n           balances[_from] -= _amount;\r\n           allowed[_from][msg.sender] -= _amount;\r\n            balances[_to] += _amount;\r\n             Transfer(_from, _to, _amount);\r\n             return true;\r\n        } else {\r\n            return false;\r\n         }\r\n     }\r\n\r\n    // Allow _spender to withdraw from your account, multiple times, up to the _value amount.\r\n     // If this function is called again it overwrites the current allowance with _value.\r\n     function approve(address _spender, uint256 _amount) returns (bool success) {\r\n         allowed[msg.sender][_spender] = _amount;\r\n         Approval(msg.sender, _spender, _amount);\r\n         return true;\r\n     }\r\n\r\n     function allowance(address _owner, address _spender) constant returns (uint256 remaining) {\r\n         return allowed[_owner][_spender];\r\n     }\r\n}",
  "sourcePath": "/home/fkp/Desktop/MatchBx/axptest/contracts/TestAXP.sol",
  "compiler": {
    "name": "solc",
    "version": "0.4.24+commit.e67f0147.Emscripten.clang"
  },
  "schemaVersion": "2.0.1",
  "updatedAt": "2018-07-06T12:54:50.261Z"
}